{
  "_format": "hh-sol-artifact-1",
  "contractName": "ProphecyVault",
  "sourceName": "contracts/ProphecyVault.sol",
  "abi": [
    {
      "inputs": [],
      "stateMutability": "nonpayable",
      "type": "constructor"
    },
    {
      "anonymous": false,
      "inputs": [
        {
          "indexed": true,
          "internalType": "uint256",
          "name": "id",
          "type": "uint256"
        },
        {
          "indexed": true,
          "internalType": "address",
          "name": "user",
          "type": "address"
        }
      ],
      "name": "ProphecyStored",
      "type": "event"
    },
    {
      "anonymous": false,
      "inputs": [
        {
          "indexed": true,
          "internalType": "address",
          "name": "user",
          "type": "address"
        },
        {
          "indexed": false,
          "internalType": "uint256",
          "name": "amount",
          "type": "uint256"
        }
      ],
      "name": "WinnerPaid",
      "type": "event"
    },
    {
      "inputs": [
        {
          "internalType": "address",
          "name": "user",
          "type": "address"
        }
      ],
      "name": "getAccuracy",
      "outputs": [
        {
          "internalType": "uint256",
          "name": "",
          "type": "uint256"
        }
      ],
      "stateMutability": "view",
      "type": "function"
    },
    {
      "inputs": [],
      "name": "getBalance",
      "outputs": [
        {
          "internalType": "uint256",
          "name": "",
          "type": "uint256"
        }
      ],
      "stateMutability": "view",
      "type": "function"
    },
    {
      "inputs": [],
      "name": "oracle",
      "outputs": [
        {
          "internalType": "address",
          "name": "",
          "type": "address"
        }
      ],
      "stateMutability": "view",
      "type": "function"
    },
    {
      "inputs": [
        {
          "internalType": "address payable",
          "name": "winner",
          "type": "address"
        },
        {
          "internalType": "uint256",
          "name": "amount",
          "type": "uint256"
        }
      ],
      "name": "payWinner",
      "outputs": [],
      "stateMutability": "nonpayable",
      "type": "function"
    },
    {
      "inputs": [
        {
          "internalType": "uint256",
          "name": "",
          "type": "uint256"
        }
      ],
      "name": "prophecies",
      "outputs": [
        {
          "internalType": "address",
          "name": "user",
          "type": "address"
        },
        {
          "internalType": "string",
          "name": "text",
          "type": "string"
        },
        {
          "internalType": "string",
          "name": "prediction",
          "type": "string"
        },
        {
          "internalType": "uint256",
          "name": "deadline",
          "type": "uint256"
        },
        {
          "internalType": "uint256",
          "name": "timestamp",
          "type": "uint256"
        },
        {
          "internalType": "bool",
          "name": "verified",
          "type": "bool"
        },
        {
          "internalType": "bool",
          "name": "correct",
          "type": "bool"
        }
      ],
      "stateMutability": "view",
      "type": "function"
    },
    {
      "inputs": [],
      "name": "prophecyCount",
      "outputs": [
        {
          "internalType": "uint256",
          "name": "",
          "type": "uint256"
        }
      ],
      "stateMutability": "view",
      "type": "function"
    },
    {
      "inputs": [
        {
          "internalType": "address",
          "name": "user",
          "type": "address"
        },
        {
          "internalType": "string",
          "name": "text",
          "type": "string"
        },
        {
          "internalType": "string",
          "name": "pred",
          "type": "string"
        },
        {
          "internalType": "uint256",
          "name": "deadline",
          "type": "uint256"
        }
      ],
      "name": "storeProphecy",
      "outputs": [
        {
          "internalType": "uint256",
          "name": "",
          "type": "uint256"
        }
      ],
      "stateMutability": "nonpayable",
      "type": "function"
    },
    {
      "inputs": [
        {
          "internalType": "address",
          "name": "",
          "type": "address"
        }
      ],
      "name": "userAccuracy",
      "outputs": [
        {
          "internalType": "uint256",
          "name": "",
          "type": "uint256"
        }
      ],
      "stateMutability": "view",
      "type": "function"
    },
    {
      "inputs": [
        {
          "internalType": "uint256",
          "name": "id",
          "type": "uint256"
        },
        {
          "internalType": "bool",
          "name": "isCorrect",
          "type": "bool"
        }
      ],
      "name": "verifyProphecy",
      "outputs": [],
      "stateMutability": "nonpayable",
      "type": "function"
    },
    {
      "stateMutability": "payable",
      "type": "receive"
    }
  ],
  "bytecode": "0x608060405234801561001057600080fd5b50336000806101000a81548173ffffffffffffffffffffffffffffffffffffffff021916908373ffffffffffffffffffffffffffffffffffffffff16021790555061143a806100606000396000f3fe60806040526004361061008a5760003560e01c8063783df30a11610059578063783df30a1461013e5780637dc0d1d01461017b5780639ea6a4a3146101a6578063a3e95cce146101e9578063e50837291461022657610091565b806312065fe0146100965780634e958d05146100c15780636431f323146100ea578063777d12b11461011357610091565b3661009157005b600080fd5b3480156100a257600080fd5b506100ab610263565b6040516100b89190610a14565b60405180910390f35b3480156100cd57600080fd5b506100e860048036038101906100e39190610acd565b61026b565b005b3480156100f657600080fd5b50610111600480360381019061010c9190610b45565b6103d5565b005b34801561011f57600080fd5b506101286105bc565b6040516101359190610a14565b60405180910390f35b34801561014a57600080fd5b5061016560048036038101906101609190610bc3565b6105c2565b6040516101729190610a14565b60405180910390f35b34801561018757600080fd5b5061019061060b565b60405161019d9190610bff565b60405180910390f35b3480156101b257600080fd5b506101cd60048036038101906101c89190610c1a565b61062f565b6040516101e09796959493929190610ce6565b60405180910390f35b3480156101f557600080fd5b50610210600480360381019061020b9190610bc3565b6107bb565b60405161021d9190610a14565b60405180910390f35b34801561023257600080fd5b5061024d60048036038101906102489190610e98565b6107d3565b60405161025a9190610a14565b60405180910390f35b600047905090565b60008054906101000a900473ffffffffffffffffffffffffffffffffffffffff1673ffffffffffffffffffffffffffffffffffffffff163373ffffffffffffffffffffffffffffffffffffffff16146102f9576040517f08c379a00000000000000000000000000000000000000000000000000000000081526004016102f090610f83565b60405180910390fd5b8047101561033c576040517f08c379a000000000000000000000000000000000000000000000000000000000815260040161033390610fef565b60405180910390fd5b8173ffffffffffffffffffffffffffffffffffffffff166108fc829081150290604051600060405180830381858888f19350505050158015610382573d6000803e3d6000fd5b508173ffffffffffffffffffffffffffffffffffffffff167f8cbbe5cd65720098fc8ce6e99a5deb232085117dd486475b49cb11604b528f30826040516103c99190610a14565b60405180910390a25050565b60008054906101000a900473ffffffffffffffffffffffffffffffffffffffff1673ffffffffffffffffffffffffffffffffffffffff163373ffffffffffffffffffffffffffffffffffffffff1614610463576040517f08c379a000000000000000000000000000000000000000000000000000000000815260040161045a90610f83565b60405180910390fd5b6002600083815260200190815260200160002060050160009054906101000a900460ff16156104c7576040517f08c379a00000000000000000000000000000000000000000000000000000000081526004016104be9061105b565b60405180910390fd5b60016002600084815260200190815260200160002060050160006101000a81548160ff021916908315150217905550806002600084815260200190815260200160002060050160016101000a81548160ff02191690831515021790555080156105b857600a600360006002600086815260200190815260200160002060000160009054906101000a900473ffffffffffffffffffffffffffffffffffffffff1673ffffffffffffffffffffffffffffffffffffffff1673ffffffffffffffffffffffffffffffffffffffff16815260200190815260200160002060008282546105b091906110aa565b925050819055505b5050565b60015481565b6000600360008373ffffffffffffffffffffffffffffffffffffffff1673ffffffffffffffffffffffffffffffffffffffff168152602001908152602001600020549050919050565b60008054906101000a900473ffffffffffffffffffffffffffffffffffffffff1681565b60026020528060005260406000206000915090508060000160009054906101000a900473ffffffffffffffffffffffffffffffffffffffff16908060010180546106789061110d565b80601f01602080910402602001604051908101604052809291908181526020018280546106a49061110d565b80156106f15780601f106106c6576101008083540402835291602001916106f1565b820191906000526020600020905b8154815290600101906020018083116106d457829003601f168201915b5050505050908060020180546107069061110d565b80601f01602080910402602001604051908101604052809291908181526020018280546107329061110d565b801561077f5780601f106107545761010080835404028352916020019161077f565b820191906000526020600020905b81548152906001019060200180831161076257829003601f168201915b5050505050908060030154908060040154908060050160009054906101000a900460ff16908060050160019054906101000a900460ff16905087565b60036020528060005260406000206000915090505481565b60008060009054906101000a900473ffffffffffffffffffffffffffffffffffffffff1673ffffffffffffffffffffffffffffffffffffffff163373ffffffffffffffffffffffffffffffffffffffff1614610864576040517f08c379a000000000000000000000000000000000000000000000000000000000815260040161085b90610f83565b60405180910390fd5b6000600160008154809291906108799061113e565b9190505590506040518060e001604052808773ffffffffffffffffffffffffffffffffffffffff168152602001868152602001858152602001848152602001428152602001600015158152602001600015158152506002600083815260200190815260200160002060008201518160000160006101000a81548173ffffffffffffffffffffffffffffffffffffffff021916908373ffffffffffffffffffffffffffffffffffffffff160217905550602082015181600101908161093d9190611332565b5060408201518160020190816109539190611332565b50606082015181600301556080820151816004015560a08201518160050160006101000a81548160ff02191690831515021790555060c08201518160050160016101000a81548160ff0219169083151502179055509050508573ffffffffffffffffffffffffffffffffffffffff16817f5e0415d7034798950d368bb7d2c9e7606b25f4ed79e12dce61090243c4d6f22760405160405180910390a380915050949350505050565b6000819050919050565b610a0e816109fb565b82525050565b6000602082019050610a296000830184610a05565b92915050565b6000604051905090565b600080fd5b600080fd5b600073ffffffffffffffffffffffffffffffffffffffff82169050919050565b6000610a6e82610a43565b9050919050565b610a7e81610a63565b8114610a8957600080fd5b50565b600081359050610a9b81610a75565b92915050565b610aaa816109fb565b8114610ab557600080fd5b50565b600081359050610ac781610aa1565b92915050565b60008060408385031215610ae457610ae3610a39565b5b6000610af285828601610a8c565b9250506020610b0385828601610ab8565b9150509250929050565b60008115159050919050565b610b2281610b0d565b8114610b2d57600080fd5b50565b600081359050610b3f81610b19565b92915050565b60008060408385031215610b5c57610b5b610a39565b5b6000610b6a85828601610ab8565b9250506020610b7b85828601610b30565b9150509250929050565b6000610b9082610a43565b9050919050565b610ba081610b85565b8114610bab57600080fd5b50565b600081359050610bbd81610b97565b92915050565b600060208284031215610bd957610bd8610a39565b5b6000610be784828501610bae565b91505092915050565b610bf981610b85565b82525050565b6000602082019050610c146000830184610bf0565b92915050565b600060208284031215610c3057610c2f610a39565b5b6000610c3e84828501610ab8565b91505092915050565b600081519050919050565b600082825260208201905092915050565b60005b83811015610c81578082015181840152602081019050610c66565b60008484015250505050565b6000601f19601f8301169050919050565b6000610ca982610c47565b610cb38185610c52565b9350610cc3818560208601610c63565b610ccc81610c8d565b840191505092915050565b610ce081610b0d565b82525050565b600060e082019050610cfb600083018a610bf0565b8181036020830152610d0d8189610c9e565b90508181036040830152610d218188610c9e565b9050610d306060830187610a05565b610d3d6080830186610a05565b610d4a60a0830185610cd7565b610d5760c0830184610cd7565b98975050505050505050565b600080fd5b600080fd5b7f4e487b7100000000000000000000000000000000000000000000000000000000600052604160045260246000fd5b610da582610c8d565b810181811067ffffffffffffffff82111715610dc457610dc3610d6d565b5b80604052505050565b6000610dd7610a2f565b9050610de38282610d9c565b919050565b600067ffffffffffffffff821115610e0357610e02610d6d565b5b610e0c82610c8d565b9050602081019050919050565b82818337600083830152505050565b6000610e3b610e3684610de8565b610dcd565b905082815260208101848484011115610e5757610e56610d68565b5b610e62848285610e19565b509392505050565b600082601f830112610e7f57610e7e610d63565b5b8135610e8f848260208601610e28565b91505092915050565b60008060008060808587031215610eb257610eb1610a39565b5b6000610ec087828801610bae565b945050602085013567ffffffffffffffff811115610ee157610ee0610a3e565b5b610eed87828801610e6a565b935050604085013567ffffffffffffffff811115610f0e57610f0d610a3e565b5b610f1a87828801610e6a565b9250506060610f2b87828801610ab8565b91505092959194509250565b7f4f6e6c79206f7261636c65000000000000000000000000000000000000000000600082015250565b6000610f6d600b83610c52565b9150610f7882610f37565b602082019050919050565b60006020820190508181036000830152610f9c81610f60565b9050919050565b7f496e73756666696369656e742062616c616e6365000000000000000000000000600082015250565b6000610fd9601483610c52565b9150610fe482610fa3565b602082019050919050565b6000602082019050818103600083015261100881610fcc565b9050919050565b7f416c726561647920766572696669656400000000000000000000000000000000600082015250565b6000611045601083610c52565b91506110508261100f565b602082019050919050565b6000602082019050818103600083015261107481611038565b9050919050565b7f4e487b7100000000000000000000000000000000000000000000000000000000600052601160045260246000fd5b60006110b5826109fb565b91506110c0836109fb565b92508282019050808211156110d8576110d761107b565b5b92915050565b7f4e487b7100000000000000000000000000000000000000000000000000000000600052602260045260246000fd5b6000600282049050600182168061112557607f821691505b602082108103611138576111376110de565b5b50919050565b6000611149826109fb565b91507fffffffffffffffffffffffffffffffffffffffffffffffffffffffffffffffff820361117b5761117a61107b565b5b600182019050919050565b60008190508160005260206000209050919050565b60006020601f8301049050919050565b600082821b905092915050565b6000600883026111e87fffffffffffffffffffffffffffffffffffffffffffffffffffffffffffffffff826111ab565b6111f286836111ab565b95508019841693508086168417925050509392505050565b6000819050919050565b600061122f61122a611225846109fb565b61120a565b6109fb565b9050919050565b6000819050919050565b61124983611214565b61125d61125582611236565b8484546111b8565b825550505050565b600090565b611272611265565b61127d818484611240565b505050565b5b818110156112a15761129660008261126a565b600181019050611283565b5050565b601f8211156112e6576112b781611186565b6112c08461119b565b810160208510156112cf578190505b6112e36112db8561119b565b830182611282565b50505b505050565b600082821c905092915050565b6000611309600019846008026112eb565b1980831691505092915050565b600061132283836112f8565b9150826002028217905092915050565b61133b82610c47565b67ffffffffffffffff81111561135457611353610d6d565b5b61135e825461110d565b6113698282856112a5565b600060209050601f83116001811461139c576000841561138a578287015190505b6113948582611316565b8655506113fc565b601f1984166113aa86611186565b60005b828110156113d2578489015182556001820191506020850194506020810190506113ad565b868310156113ef57848901516113eb601f8916826112f8565b8355505b6001600288020188555050505b50505050505056fea264697066735822122052dd07b15607d8f06f765ced103059e7bcd542d7dfbe4770b9bcf2e35c059fb364736f6c63430008140033",
  "linkReferences": {},
  "deployedLinkReferences": {}
}